:100000000C9458000C9480000C9480000C94800098
:100010000C9480000C9480000C9480000C949C0440
:100020000C9480000C9480000C9480000C94800050
:100030000C9480000C9480000C9480000C94800040
:100040000C9452040C9480000C9420040C94FA0339
:100050000C9480000C9480000C9480000C94800020
:100060000C9480000C948000000000002400270005
:100070002A000000000023002600290000000000E4
:10008000250028002B0004040404040404040202D4
:100090000202020203030303030301020408102007
:1000A0004080010204081020010204081020C1044D
:1000B00011241FBECFEFD8E0DEBFCDBF11E0A0E01E
:1000C000B1E0E6E7FCE002C005900D92AA31B1076D
:1000D000D9F721E0AAE1B1E001C01D92AA3FB20721
:1000E000E1F710E0C8E5D0E004C02197FE010E94CE
:1000F0003306C735D107C9F70E94FF040C943906AF
:100100000C940000DC0170E0FB01E656FF4FE49127
:100110001496EC93149750E0FA01E656FF4FE491E1
:100120001596EC9315976A577F4FFB018491E82F42
:10013000F0E0EE0FFF1FE458FF4F85919491179662
:100140009C938E931697FA01EA57FF4FE491F0E0E3
:10015000EE0FFF1FEE58FF4F8591949119969C93D7
:100160008E931897FB016491E62FF0E0EE0FFF1FCE
:10017000E859FF4F859194911B969C938E931A9703
:1001800089E499E51D969C938E931C970895AF92F0
:10019000BF92CF92DF92EF92FF920F931F93CF9374
:1001A000DF936C017B018B01040F151FEB015E01D6
:1001B000AE18BF08C017D10759F06991D601ED916B
:1001C000FC910190F081E02DC6010995892B79F70A
:1001D000C501DF91CF911F910F91FF90EF90DF90BC
:1001E000CF90BF90AF900895FC01538D448D252F83
:1001F00030E0842F90E0821B930B541710F0CF96C1
:10020000089501970895FC01918D828D981761F0F2
:10021000A28DAE0FBF2FB11D5D968C91928D9F5F09
:100220009F73928F90E008958FEF9FEF0895FC01E8
:10023000918D828D981731F0828DE80FF11D858D9B
:1002400090E008958FEF9FEF0895FC01918D228D2E
:10025000892F90E0805C9F4F821B91098F739927B3
:10026000089587E291E00E94250121E0892B09F49D
:1002700020E0822F089580E090E0892B29F00E94F1
:10028000310181110C9400000895FC01A48DA80F88
:10029000B92FB11DA35ABF4F2C91848D90E00196C8
:1002A0008F739927848FA689B7892C93A089B189E8
:1002B0008C91837080648C93938D848D981306C089
:1002C0000288F389E02D80818F7D80830895EF92ED
:1002D000FF920F931F93CF93DF93EC0181E0888F00
:1002E0009B8D8C8D98131AC0E889F989808185FFD0
:1002F00015C09FB7F894EE89FF896083E889F98972
:1003000080818370806480839FBF81E090E0DF9173
:10031000CF911F910F91FF90EF900895F62E0B8DC6
:1003200010E00F5F1F4F0F731127E02E8C8D8E1181
:100330000CC00FB607FCFACFE889F989808185FFE8
:10034000F5CFCE010E944501F1CFEB8DEC0FFD2FD3
:10035000F11DE35AFF4FF0829FB7F8940B8FEA89A3
:10036000FB8980818062CFCFCF93DF93EC01888DB2
:100370008823B9F0AA89BB89E889F9898C9185FD20
:1003800003C0808186FD0DC00FB607FCF7CF8C91AE
:1003900085FFF2CF808185FFEDCFCE010E94450120
:1003A000E9CFDF91CF9108953FB7F8948091230171
:1003B00090912401A0912501B091260126B5A89B1A
:1003C00005C02F3F19F00196A11DB11D3FBFBA2FE7
:1003D000A92F982F8827BC01CD01620F711D811DA7
:1003E000911D42E0660F771F881F991F4A95D1F72C
:1003F00008952F923F924F925F926F927F928F92C9
:100400009F92AF92BF92CF92DF92EF92FF920F93A3
:100410001F93CF93DF93CDB7DEB72A970FB6F8942B
:10042000DEBF0FBECDBF8C011A82198225E0F22EED
:10043000E12C3BE0232E312C43E2C42ED12C0E9430
:10044000D4014B015C01D8011A96ED91FC911B97E8
:10045000808114969C911497892B80831696ED9138
:10046000FC911797908114968C911497809589230D
:100470008083C1010197F1F71696ED91FC911797D2
:10048000808114969C911497892B8083C6010197D3
:10049000F1F71696ED91FC911797908114968C9137
:1004A00014978095892380831A96ED91FC911B9770
:1004B000908114968C911497809589238083189647
:1004C000ED91FC911997808115969C91892359F59E
:1004D0000E94D401AB01BC01F80184859585B0E090
:1004E000A0E08855994EAF4FBF4F840F951FA61FB0
:1004F000B71F86879787A08BB18BD8011896ED918F
:10050000FC911997808115969C91892371F40E9422
:10051000D401F801468457846088718846165706CE
:100520006806790650F7FA9464C00E94D401D80195
:100530001C962D913C91620F731F811D911DF80136
:1005400066877787808B918BD8011896ED91FC9107
:100550001997808115969C91892369F00E94D40196
:10056000F8014684578460887188461657066806E5
:10057000790650F7D8CF0E94D401D8011C962D914E
:100580003C911D97A901455051091E962D913C9112
:10059000FA01E21BF30BAF01460F571F411551053E
:1005A00011F2EE20C1F0AE2DB0E0AA0FBB1F1296E3
:1005B00021E030E02C0F3D1FA20FB31F2E2DCD01E7
:1005C0000497FC01808191818417950728F49E93FC
:1005D0008E932150A1F720E0E22FF0E0EE0FFF1FF5
:1005E00021E030E02C0F3D1FE20FF31F51834083C9
:1005F000E394EF1408F04AC00E94D4016819790905
:100600008A099B09683471478105910508F017CF65
:100610000E94D40148E4840E41E7941EA11CB11C41
:10062000A5019401261B370B480B590BCA01B901D0
:1006300028EE33E040E050E00E94110649015A01E3
:100640000E94D4012B013C0181149104A104B10446
:1006500089F4F5CE31E0831A9108A108B10848EE7B
:10066000440E43E0541E611C711C81149104A104CA
:10067000B10451F30E94D4016419750986099709E0
:10068000683E73408105910528F7DECFEF2DEE7FA0
:10069000EC0FFD2FF11D6181728190E080E02A96C0
:1006A0000FB6F894DEBF0FBECDBFDF91CF911F9183
:1006B0000F91FF90EF90DF90CF90BF90AF909F9001
:1006C0008F907F906F905F904F903F902F90089504
:1006D000FC0101900020E9F73197AF01481B590B4D
:1006E000BC0187E291E00C94C7008F929F92AF9279
:1006F000BF92CF92DF92EF92FF920F931F93CF930F
:10070000DF93CDB7DEB7A1970FB6F894DEBF0FBE6B
:10071000CDBF6C01990FEE08FF08F7FE47C06DE2F0
:1007200087E291E00E9467018C0122273327A9010B
:100730002C193D094E095F0919A2CE0181967C0151
:100740009AE0892E912CA12CB12CCA01B901A501E6
:1007500094010E941106605DF70162937F012115EB
:1007600031054105510589F790E080E0309719F097
:10077000CF010E946803080F191F82E191E00E94D7
:100780006803800F911FA1960FB6F894DEBF0FBECD
:10079000CDBFDF91CF911F910F91FF90EF90DF9030
:1007A000CF90BF90AF909F908F900895A701960132
:1007B00019A28E010F5D1F4F8AE0C82ED12CE12CAB
:1007C000F12CCA01B901A70196010E941106605DD2
:1007D000F80162938F01211531054105510589F713
:1007E000309729F0CF010E9468038C01C6CF10E03A
:1007F00000E0C3CF1F920F920FB60F9211242F93D8
:100800003F934F935F936F937F938F939F93AF9398
:10081000BF93EF93FF9387E291E00E944501FF9120
:10082000EF91BF91AF919F918F917F916F915F9168
:100830004F913F912F910F900FBE0F901F901895E1
:100840001F920F920FB60F9211242F938F939F93A5
:10085000EF93FF93E0913701F09138018081E091AF
:100860003D01F0913E0182FD1BC0908180914001CD
:100870008F5F8F7320914101821741F0E091400119
:10088000F0E0E95DFE4F958F80934001FF91EF917D
:100890009F918F912F910F900FBE0F901F901895E1
:1008A0008081F4CF1F920F920FB60F9211242F93D5
:1008B0003F938F939F93AF93BF9380911F0190912C
:1008C0002001A0912101B091220130911E0123E06D
:1008D000230F2D3758F50196A11DB11D20931E0140
:1008E00080931F0190932001A0932101B0932201D6
:1008F0008091230190912401A0912501B0912601BE
:100900000196A11DB11D8093230190932401A09312
:100910002501B0932601BF91AF919F918F913F9197
:100920002F910F900FBE0F901F90189526E8230F60
:100930000296A11DB11DD2CF1F920F920FB60F923A
:1009400011242F933F934F935F936F937F938F93D4
:100950009F93AF93BF93EF93FF93F0E0E0E009958F
:10096000FF91EF91BF91AF919F918F917F916F9187
:100970005F914F913F912F910F900FBE0F901F905D
:100980001895E7E2F1E01382128288EE93E0A0E08E
:10099000B0E084839583A683B78384E091E091835C
:1009A000808385EC90E09587848784EC90E097873E
:1009B000868780EC90E0918B808B81EC90E0938B2C
:1009C000828B82EC90E0958B848B86EC90E0978B09
:1009D000868B118E128E138E148E46E067E088EEA1
:1009E00091E00E94820044E065E086ED91E00E9483
:1009F000820042E063E084EC91E00C948200CF93AB
:100A0000DF9300D000D000D0CDB7DEB7789484B5A6
:100A1000826084BD84B5816084BD85B5826085BDFA
:100A200085B5816085BD80916E00816080936E0088
:100A3000109281008091810082608093810080917A
:100A4000810081608093810080918000816080932B
:100A500080008091B10084608093B1008091B000EB
:100A600081608093B00080917A00846080937A00E6
:100A700080917A00826080937A0080917A00816010
:100A800080937A0080917A00806880937A00109237
:100A9000C100E0913701F091380182E08083E0915C
:100AA0003301F09134011082E0913501F09136016B
:100AB0008FEC808310923F01E0913B01F0913C016B
:100AC00086E08083E0913901F0913A018081806174
:100AD0008083E0913901F0913A01808188608083C0
:100AE000E0913901F0913A01808180688083E09142
:100AF0003901F0913A0180818F7D808309E310E014
:100B000083E0E82EF12C90E0C92E90E0D92E87E208
:100B100091E00E942501892BA1F187E291E00E94DA
:100B2000030188EE91E00E94F9012B0186ED91E02E
:100B30000E94F9014B0184EC91E00E94F901698364
:100B40007A838B839C83C201B8010E94E9057E836E
:100B50006D83C401B8010E94E9055B0189819A8116
:100B6000B8010E94E9054B018D819E818A159B0584
:100B700099F485E191E00E9468038D819E810E9435
:100B80007503C114D10419F20E943101882309F4BC
:100B9000BECF0E940000BBCF8D819E818617970734
:100BA00041F3A616B70631F485E191E00E9468038F
:100BB000C501E5CF87E191E00E9468038D819E81A8
:100BC0008A0D9B1D880D991DB7010E94FD05CB0163
:100BD000D6CFAA1BBB1B51E107C0AA1FBB1FA6177C
:100BE000B70710F0A61BB70B881F991F5A95A9F7D6
:100BF00080959095BC01CD01089597FB072E16F4C2
:100C0000009407D077FD09D00E94E90507FC05D0C4
:100C10003EF4909581959F4F0895709561957F4F13
:100C20000895A1E21A2EAA1BBB1BFD010DC0AA1F2D
:100C3000BB1FEE1FFF1FA217B307E407F50720F045
:100C4000A21BB30BE40BF50B661F771F881F991FC0
:100C50001A9469F760957095809590959B01AC0109
:100C6000BD01CF010895EE0FFF1F0590F491E02D17
:060C70000994F894FFCF87
:100C7600000000006701C700F400B401250103016C
:0A0C860017010D0A00630061000071
:00000001FF
